:03000000020016E5
:0C001600787FE4F6D8FD75810902005DDA
:0400060002080000EC
:1000A200D3EF9400EE940040147DFF7C00ED1D70B0
:0D00B200011CED4C70F7EF1F70E61E80E39F
:0100BF00221E
:030003000200D622
:1000D600C0E0E50945087005F508750901B290D03C
:0200E600E03206
:030013000200C028
:1000C000C0E0E509640145087007D291F50875099B
:0600D00002B290D0E03204
:1000E800D2AFD2A8D2AAD288D28AC290C29180FEB8
:100022000200E8E493A3F8E493A34003F68001F20C
:1000320008DFF48029E493A3F85407240CC8C333DF
:10004200C4540F4420C8834004F456800146F6DFAE
:10005200E4800B0102040810204080900006E47E38
:10006200019360BCA3FF543F30E509541FFEE493A3
:10007200A360010ECF54C025E060A840B8E493A36A
:10008200FAE493A3F8E493A3C8C582C8CAC583CA95
:10009200F0A3C8C582C8CAC583CADFE9DEE780BE4D
:01000A0000F5
:00000001FF
