:03000000020016E5
:0C001600787FE4F6D8FD75810B02005DD8
:0800060002080000020A0000DC
:030003000200A256
:1000A200C0E030B30675080075090120B306750873
:1000B20000750902B290B290050BE50B7002050AB9
:1000C2006405450A7010B290B290B290B290B290AC
:0900D200B290F50AF50BD0E03202
:030013000200DB0D
:1000DB00C0E0E50964014508700920B206D291F52C
:1000EB0008F509E50964024508700930B206C291AA
:0700FB00F508F509D0E03221
:10010200D2AFD2A8D2AAD288D28AC290C29180FE9D
:10002200020102E493A3F8E493A34003F68001F2F1
:1000320008DFF48029E493A3F85407240CC8C333DF
:10004200C4540F4420C8834004F456800146F6DFAE
:10005200E4800B0102040810204080900006E47E38
:10006200019360BCA3FF543F30E509541FFEE493A3
:10007200A360010ECF54C025E060A840B8E493A36A
:10008200FAE493A3F8E493A3C8C582C8CAC583CA95
:10009200F0A3C8C582C8CAC583CADFE9DEE780BE4D
:01000E0000F1
:00000001FF
