:03000000020155A5
:0C015500787FE4F6D8FD75810F020111DF
:10013700D3EF9400EE940040147DFF7C00ED1D701A
:0D014700011CED4C70F7EF1F70E61E80E309
:010154002288
:10000E0075B0FEAFB0750C008F0D530DF0750C0072
:10001E00E50D64F0450C603A7F0A7E00120137E56B
:10002E000D64F0450C602BE50C7027E50D249060F7
:10003E001F24C0601724E0600B24F07015E4F5084F
:10004E00F509800E7508007509018006C2918002BF
:10005E00D29175B0FDAFB0750C008F0D530DF075CC
:10006E000C00E50D64F0450C60407F0A7E00120125
:10007E0037E50D64F0450C6031E50C702DE50D246F
:10008E0090602124C0601624E0600B24F0701B7574
:10009E000A00750B1422750A00750B0A22750A00E8
:0B00AE00750B0222750A00750B012281
:03000B000200B937
:1000B900C0E0C0D075D000C004C005C006C0077537
:1000C9008CFF758AA4050FE50F7002050E12000E4C
:1000D900E50945087025E50FB50B0FE50EB50A0AC8
:1000E900750E00750F00B2908011C3E50F950BE5F1
:1000F9000E950A4006750E00750F00D007D006D080
:0801090005D004D0D0D0E03293
:10011100E4F50EF50F758901758CFF758AA4D2AFD0
:10012100D2A9D2A8D28CC290C291F508750901F565
:060131000A750B1480FEAC
:00000001FF
