:03000000020016E5
:0C001600787FE4F6D8FD75810902005DDA
:0400060002080000EC
:1000CB00D3EF9400EE940040147DFF7C00ED1D7087
:0D00DB00011CED4C70F7EF1F70E61E80E376
:0100E80022F5
:030003000200E90F
:1000E90030B30675080075090120B3067508007557
:0500F9000902B2903283
:030013000200A246
:1000A200C0E0E50964014508700920B206D291F565
:1000B20008F509E50964024508700930B206C291E3
:0900C200F508F509B290D0E03216
:1000FE00D2AFD2A8D2AAD288D28AC290C29180FEA2
:100022000200FEE493A3F8E493A34003F68001F2F6
:1000320008DFF48029E493A3F85407240CC8C333DF
:10004200C4540F4420C8834004F456800146F6DFAE
:10005200E4800B0102040810204080900006E47E38
:10006200019360BCA3FF543F30E509541FFEE493A3
:10007200A360010ECF54C025E060A840B8E493A36A
:10008200FAE493A3F8E493A3C8C582C8CAC583CA95
:10009200F0A3C8C582C8CAC583CADFE9DEE780BE4D
:01000A0000F5
:00000001FF
